{
  "_format": "hh-sol-artifact-1",
  "contractName": "BasicIslandGenesis",
  "sourceName": "contracts/BasicIslandGenesis.sol",
  "abi": [
    {
      "inputs": [
        {
          "internalType": "string",
          "name": "uri_",
          "type": "string"
        },
        {
          "internalType": "address",
          "name": "addr",
          "type": "address"
        }
      ],
      "stateMutability": "nonpayable",
      "type": "constructor"
    },
    {
      "inputs": [],
      "name": "AboveMaximumMintPerUser",
      "type": "error"
    },
    {
      "inputs": [],
      "name": "ContractsNotAllowedToMint",
      "type": "error"
    },
    {
      "inputs": [],
      "name": "InvalidBuyPrice",
      "type": "error"
    },
    {
      "inputs": [],
      "name": "MintNotActive",
      "type": "error"
    },
    {
      "inputs": [],
      "name": "MintedOut",
      "type": "error"
    },
    {
      "inputs": [],
      "name": "TokenDoesNotExist",
      "type": "error"
    },
    {
      "inputs": [],
      "name": "TransferFailed",
      "type": "error"
    },
    {
      "anonymous": false,
      "inputs": [
        {
          "indexed": true,
          "internalType": "address",
          "name": "account",
          "type": "address"
        },
        {
          "indexed": true,
          "internalType": "address",
          "name": "operator",
          "type": "address"
        },
        {
          "indexed": false,
          "internalType": "bool",
          "name": "approved",
          "type": "bool"
        }
      ],
      "name": "ApprovalForAll",
      "type": "event"
    },
    {
      "anonymous": false,
      "inputs": [
        {
          "indexed": true,
          "internalType": "address",
          "name": "previousOwner",
          "type": "address"
        },
        {
          "indexed": true,
          "internalType": "address",
          "name": "newOwner",
          "type": "address"
        }
      ],
      "name": "OwnershipTransferred",
      "type": "event"
    },
    {
      "anonymous": false,
      "inputs": [
        {
          "indexed": true,
          "internalType": "address",
          "name": "operator",
          "type": "address"
        },
        {
          "indexed": true,
          "internalType": "address",
          "name": "from",
          "type": "address"
        },
        {
          "indexed": true,
          "internalType": "address",
          "name": "to",
          "type": "address"
        },
        {
          "indexed": false,
          "internalType": "uint256[]",
          "name": "ids",
          "type": "uint256[]"
        },
        {
          "indexed": false,
          "internalType": "uint256[]",
          "name": "values",
          "type": "uint256[]"
        }
      ],
      "name": "TransferBatch",
      "type": "event"
    },
    {
      "anonymous": false,
      "inputs": [
        {
          "indexed": true,
          "internalType": "address",
          "name": "operator",
          "type": "address"
        },
        {
          "indexed": true,
          "internalType": "address",
          "name": "from",
          "type": "address"
        },
        {
          "indexed": true,
          "internalType": "address",
          "name": "to",
          "type": "address"
        },
        {
          "indexed": false,
          "internalType": "uint256",
          "name": "id",
          "type": "uint256"
        },
        {
          "indexed": false,
          "internalType": "uint256",
          "name": "value",
          "type": "uint256"
        }
      ],
      "name": "TransferSingle",
      "type": "event"
    },
    {
      "anonymous": false,
      "inputs": [
        {
          "indexed": false,
          "internalType": "string",
          "name": "value",
          "type": "string"
        },
        {
          "indexed": true,
          "internalType": "uint256",
          "name": "id",
          "type": "uint256"
        }
      ],
      "name": "URI",
      "type": "event"
    },
    {
      "inputs": [],
      "name": "_mintPrice",
      "outputs": [
        {
          "internalType": "uint256",
          "name": "",
          "type": "uint256"
        }
      ],
      "stateMutability": "view",
      "type": "function"
    },
    {
      "inputs": [
        {
          "internalType": "address",
          "name": "account",
          "type": "address"
        }
      ],
      "name": "amountMinted",
      "outputs": [
        {
          "internalType": "uint256",
          "name": "",
          "type": "uint256"
        }
      ],
      "stateMutability": "view",
      "type": "function"
    },
    {
      "inputs": [
        {
          "internalType": "address",
          "name": "account",
          "type": "address"
        },
        {
          "internalType": "uint256",
          "name": "id",
          "type": "uint256"
        }
      ],
      "name": "balanceOf",
      "outputs": [
        {
          "internalType": "uint256",
          "name": "",
          "type": "uint256"
        }
      ],
      "stateMutability": "view",
      "type": "function"
    },
    {
      "inputs": [
        {
          "internalType": "address[]",
          "name": "accounts",
          "type": "address[]"
        },
        {
          "internalType": "uint256[]",
          "name": "ids",
          "type": "uint256[]"
        }
      ],
      "name": "balanceOfBatch",
      "outputs": [
        {
          "internalType": "uint256[]",
          "name": "",
          "type": "uint256[]"
        }
      ],
      "stateMutability": "view",
      "type": "function"
    },
    {
      "inputs": [
        {
          "internalType": "uint256",
          "name": "mintPrice",
          "type": "uint256"
        }
      ],
      "name": "changeMintPrice",
      "outputs": [],
      "stateMutability": "nonpayable",
      "type": "function"
    },
    {
      "inputs": [],
      "name": "getState",
      "outputs": [
        {
          "internalType": "bool",
          "name": "",
          "type": "bool"
        }
      ],
      "stateMutability": "view",
      "type": "function"
    },
    {
      "inputs": [
        {
          "internalType": "address",
          "name": "account",
          "type": "address"
        },
        {
          "internalType": "address",
          "name": "operator",
          "type": "address"
        }
      ],
      "name": "isApprovedForAll",
      "outputs": [
        {
          "internalType": "bool",
          "name": "",
          "type": "bool"
        }
      ],
      "stateMutability": "view",
      "type": "function"
    },
    {
      "inputs": [
        {
          "internalType": "uint256",
          "name": "amount",
          "type": "uint256"
        }
      ],
      "name": "mint",
      "outputs": [],
      "stateMutability": "payable",
      "type": "function"
    },
    {
      "inputs": [],
      "name": "name",
      "outputs": [
        {
          "internalType": "string",
          "name": "",
          "type": "string"
        }
      ],
      "stateMutability": "view",
      "type": "function"
    },
    {
      "inputs": [],
      "name": "owner",
      "outputs": [
        {
          "internalType": "address",
          "name": "",
          "type": "address"
        }
      ],
      "stateMutability": "view",
      "type": "function"
    },
    {
      "inputs": [],
      "name": "renounceOwnership",
      "outputs": [],
      "stateMutability": "nonpayable",
      "type": "function"
    },
    {
      "inputs": [
        {
          "internalType": "address",
          "name": "from",
          "type": "address"
        },
        {
          "internalType": "address",
          "name": "to",
          "type": "address"
        },
        {
          "internalType": "uint256[]",
          "name": "ids",
          "type": "uint256[]"
        },
        {
          "internalType": "uint256[]",
          "name": "amounts",
          "type": "uint256[]"
        },
        {
          "internalType": "bytes",
          "name": "data",
          "type": "bytes"
        }
      ],
      "name": "safeBatchTransferFrom",
      "outputs": [],
      "stateMutability": "nonpayable",
      "type": "function"
    },
    {
      "inputs": [
        {
          "internalType": "address",
          "name": "from",
          "type": "address"
        },
        {
          "internalType": "address",
          "name": "to",
          "type": "address"
        },
        {
          "internalType": "uint256",
          "name": "id",
          "type": "uint256"
        },
        {
          "internalType": "uint256",
          "name": "amount",
          "type": "uint256"
        },
        {
          "internalType": "bytes",
          "name": "data",
          "type": "bytes"
        }
      ],
      "name": "safeTransferFrom",
      "outputs": [],
      "stateMutability": "nonpayable",
      "type": "function"
    },
    {
      "inputs": [
        {
          "internalType": "address",
          "name": "operator",
          "type": "address"
        },
        {
          "internalType": "bool",
          "name": "approved",
          "type": "bool"
        }
      ],
      "name": "setApprovalForAll",
      "outputs": [],
      "stateMutability": "nonpayable",
      "type": "function"
    },
    {
      "inputs": [
        {
          "internalType": "bytes4",
          "name": "interfaceId",
          "type": "bytes4"
        }
      ],
      "name": "supportsInterface",
      "outputs": [
        {
          "internalType": "bool",
          "name": "",
          "type": "bool"
        }
      ],
      "stateMutability": "view",
      "type": "function"
    },
    {
      "inputs": [],
      "name": "symbol",
      "outputs": [
        {
          "internalType": "string",
          "name": "",
          "type": "string"
        }
      ],
      "stateMutability": "view",
      "type": "function"
    },
    {
      "inputs": [],
      "name": "toggleMint",
      "outputs": [],
      "stateMutability": "nonpayable",
      "type": "function"
    },
    {
      "inputs": [],
      "name": "totalAmountMinted",
      "outputs": [
        {
          "internalType": "uint256",
          "name": "",
          "type": "uint256"
        }
      ],
      "stateMutability": "view",
      "type": "function"
    },
    {
      "inputs": [
        {
          "internalType": "address",
          "name": "newOwner",
          "type": "address"
        }
      ],
      "name": "transferOwnership",
      "outputs": [],
      "stateMutability": "nonpayable",
      "type": "function"
    },
    {
      "inputs": [
        {
          "internalType": "uint256",
          "name": "id",
          "type": "uint256"
        }
      ],
      "name": "uri",
      "outputs": [
        {
          "internalType": "string",
          "name": "",
          "type": "string"
        }
      ],
      "stateMutability": "view",
      "type": "function"
    },
    {
      "inputs": [],
      "name": "withdraw",
      "outputs": [],
      "stateMutability": "nonpayable",
      "type": "function"
    }
  ],
  "bytecode": "0x60806040526040518060400160405280601481526020017f42617369632049736c616e642047656e65736973000000000000000000000000815250600690816200004a91906200093d565b506040518060400160405280600481526020017f4445534300000000000000000000000000000000000000000000000000000000815250600790816200009191906200093d565b50680d8d726b7177a80000600955348015620000ac57600080fd5b50604051620047a1380380620047a18339818101604052810190620000d2919062000bed565b81620000e4816200014c60201b60201c565b5062000105620000f96200016160201b60201c565b6200016960201b60201c565b81600490816200011691906200093d565b506200013c816001600a604051806020016040528060008152506200022f60201b60201c565b600a600881905550505062001196565b80600290816200015d91906200093d565b5050565b600033905090565b6000600360009054906101000a900473ffffffffffffffffffffffffffffffffffffffff16905081600360006101000a81548173ffffffffffffffffffffffffffffffffffffffff021916908373ffffffffffffffffffffffffffffffffffffffff1602179055508173ffffffffffffffffffffffffffffffffffffffff168173ffffffffffffffffffffffffffffffffffffffff167f8be0079c531659141344cd1fd0a4f28419497f9722a3daafe3b4186f6b6457e060405160405180910390a35050565b600073ffffffffffffffffffffffffffffffffffffffff168473ffffffffffffffffffffffffffffffffffffffff1603620002a1576040517f08c379a0000000000000000000000000000000000000000000000000000000008152600401620002989062000cda565b60405180910390fd5b6000620002b36200016160201b60201c565b90506000620002c8856200041660201b60201c565b90506000620002dd856200041660201b60201c565b9050620002f6836000898585896200049760201b60201c565b8460008088815260200190815260200160002060008973ffffffffffffffffffffffffffffffffffffffff1673ffffffffffffffffffffffffffffffffffffffff168152602001908152602001600020600082825462000357919062000d2b565b925050819055508673ffffffffffffffffffffffffffffffffffffffff16600073ffffffffffffffffffffffffffffffffffffffff168473ffffffffffffffffffffffffffffffffffffffff167fc3d58168c5ae7397731d063d5bbf3d657854427343f4c083240f7aacaa2d0f628989604051620003d792919062000d77565b60405180910390a4620003f6836000898585896200049f60201b60201c565b6200040d83600089898989620004a760201b60201c565b50505050505050565b60606000600167ffffffffffffffff811115620004385762000437620006ce565b5b604051908082528060200260200182016040528015620004675781602001602082028036833780820191505090505b509050828160008151811062000482576200048162000da4565b5b60200260200101818152505080915050919050565b505050505050565b505050505050565b620004d38473ffffffffffffffffffffffffffffffffffffffff16620006a060201b62000fa61760201c565b1562000698578373ffffffffffffffffffffffffffffffffffffffff1663f23a6e6187878686866040518663ffffffff1660e01b81526004016200051c95949392919062000e41565b6020604051808303816000875af19250505080156200055b57506040513d601f19601f8201168201806040525081019062000558919062000f02565b60015b6200060c576200056a62000f41565b806308c379a003620005cd57506200058162000f66565b806200058e5750620005cf565b806040517f08c379a0000000000000000000000000000000000000000000000000000000008152600401620005c4919062001042565b60405180910390fd5b505b6040517f08c379a00000000000000000000000000000000000000000000000000000000081526004016200060390620010dc565b60405180910390fd5b63f23a6e6160e01b7bffffffffffffffffffffffffffffffffffffffffffffffffffffffff1916817bffffffffffffffffffffffffffffffffffffffffffffffffffffffff19161462000696576040517f08c379a00000000000000000000000000000000000000000000000000000000081526004016200068d9062001174565b60405180910390fd5b505b505050505050565b6000808273ffffffffffffffffffffffffffffffffffffffff163b119050919050565b600081519050919050565b7f4e487b7100000000000000000000000000000000000000000000000000000000600052604160045260246000fd5b7f4e487b7100000000000000000000000000000000000000000000000000000000600052602260045260246000fd5b600060028204905060018216806200074557607f821691505b6020821081036200075b576200075a620006fd565b5b50919050565b60008190508160005260206000209050919050565b60006020601f8301049050919050565b600082821b905092915050565b600060088302620007c57fffffffffffffffffffffffffffffffffffffffffffffffffffffffffffffffff8262000786565b620007d1868362000786565b95508019841693508086168417925050509392505050565b6000819050919050565b6000819050919050565b60006200081e620008186200081284620007e9565b620007f3565b620007e9565b9050919050565b6000819050919050565b6200083a83620007fd565b62000852620008498262000825565b84845462000793565b825550505050565b600090565b620008696200085a565b620008768184846200082f565b505050565b5b818110156200089e57620008926000826200085f565b6001810190506200087c565b5050565b601f821115620008ed57620008b78162000761565b620008c28462000776565b81016020851015620008d2578190505b620008ea620008e18562000776565b8301826200087b565b50505b505050565b600082821c905092915050565b60006200091260001984600802620008f2565b1980831691505092915050565b60006200092d8383620008ff565b9150826002028217905092915050565b6200094882620006c3565b67ffffffffffffffff811115620009645762000963620006ce565b5b6200097082546200072c565b6200097d828285620008a2565b600060209050601f831160018114620009b55760008415620009a0578287015190505b620009ac85826200091f565b86555062000a1c565b601f198416620009c58662000761565b60005b82811015620009ef57848901518255600182019150602085019450602081019050620009c8565b8683101562000a0f578489015162000a0b601f891682620008ff565b8355505b6001600288020188555050505b505050505050565b6000604051905090565b600080fd5b600080fd5b600080fd5b600080fd5b6000601f19601f8301169050919050565b62000a5e8262000a42565b810181811067ffffffffffffffff8211171562000a805762000a7f620006ce565b5b80604052505050565b600062000a9562000a24565b905062000aa3828262000a53565b919050565b600067ffffffffffffffff82111562000ac65762000ac5620006ce565b5b62000ad18262000a42565b9050602081019050919050565b60005b8381101562000afe57808201518184015260208101905062000ae1565b60008484015250505050565b600062000b2162000b1b8462000aa8565b62000a89565b90508281526020810184848401111562000b405762000b3f62000a3d565b5b62000b4d84828562000ade565b509392505050565b600082601f83011262000b6d5762000b6c62000a38565b5b815162000b7f84826020860162000b0a565b91505092915050565b600073ffffffffffffffffffffffffffffffffffffffff82169050919050565b600062000bb58262000b88565b9050919050565b62000bc78162000ba8565b811462000bd357600080fd5b50565b60008151905062000be78162000bbc565b92915050565b6000806040838503121562000c075762000c0662000a2e565b5b600083015167ffffffffffffffff81111562000c285762000c2762000a33565b5b62000c368582860162000b55565b925050602062000c498582860162000bd6565b9150509250929050565b600082825260208201905092915050565b7f455243313135353a206d696e7420746f20746865207a65726f2061646472657360008201527f7300000000000000000000000000000000000000000000000000000000000000602082015250565b600062000cc260218362000c53565b915062000ccf8262000c64565b604082019050919050565b6000602082019050818103600083015262000cf58162000cb3565b9050919050565b7f4e487b7100000000000000000000000000000000000000000000000000000000600052601160045260246000fd5b600062000d3882620007e9565b915062000d4583620007e9565b925082820190508082111562000d605762000d5f62000cfc565b5b92915050565b62000d7181620007e9565b82525050565b600060408201905062000d8e600083018562000d66565b62000d9d602083018462000d66565b9392505050565b7f4e487b7100000000000000000000000000000000000000000000000000000000600052603260045260246000fd5b62000dde8162000ba8565b82525050565b600081519050919050565b600082825260208201905092915050565b600062000e0d8262000de4565b62000e19818562000def565b935062000e2b81856020860162000ade565b62000e368162000a42565b840191505092915050565b600060a08201905062000e58600083018862000dd3565b62000e67602083018762000dd3565b62000e76604083018662000d66565b62000e85606083018562000d66565b818103608083015262000e99818462000e00565b90509695505050505050565b60007fffffffff0000000000000000000000000000000000000000000000000000000082169050919050565b62000edc8162000ea5565b811462000ee857600080fd5b50565b60008151905062000efc8162000ed1565b92915050565b60006020828403121562000f1b5762000f1a62000a2e565b5b600062000f2b8482850162000eeb565b91505092915050565b60008160e01c9050919050565b600060033d111562000f635760046000803e62000f6060005162000f34565b90505b90565b600060443d1062000ffe5762000f7b62000a24565b60043d036004823e80513d602482011167ffffffffffffffff8211171562000fa557505062000ffe565b808201805167ffffffffffffffff81111562000fc5575050505062000ffe565b80602083010160043d03850181111562000fe457505050505062000ffe565b62000ff58260200185018662000a53565b82955050505050505b90565b60006200100e82620006c3565b6200101a818562000c53565b93506200102c81856020860162000ade565b620010378162000a42565b840191505092915050565b600060208201905081810360008301526200105e818462001001565b905092915050565b7f455243313135353a207472616e7366657220746f206e6f6e204552433131353560008201527f526563656976657220696d706c656d656e746572000000000000000000000000602082015250565b6000620010c460348362000c53565b9150620010d18262001066565b604082019050919050565b60006020820190508181036000830152620010f781620010b5565b9050919050565b7f455243313135353a204552433131353552656365697665722072656a6563746560008201527f6420746f6b656e73000000000000000000000000000000000000000000000000602082015250565b60006200115c60288362000c53565b91506200116982620010fe565b604082019050919050565b600060208201905081810360008301526200118f816200114d565b9050919050565b6135fb80620011a66000396000f3fe6080604052600436106101295760003560e01c80634e1273f4116100ab578063a22cb4651161006f578063a22cb465146103e6578063d3dd5fe01461040f578063d4e9329214610426578063e985e9c51461043d578063f242432a1461047a578063f2fde38b146104a357610129565b80634e1273f414610320578063715018a61461035d5780638da5cb5b1461037457806395d89b411461039f578063a0712d68146103ca57610129565b80630e89341c116100f25780630e89341c146102295780631865c57d146102665780632eb2c2d6146102915780633fd17366146102ba578063438a67e7146102e357610129565b8062fdd58e1461012e57806301ffc9a71461016b57806301ffeaa4146101a85780630387da42146101d357806306fdde03146101fe575b600080fd5b34801561013a57600080fd5b5061015560048036038101906101509190612097565b6104cc565b60405161016291906120e6565b60405180910390f35b34801561017757600080fd5b50610192600480360381019061018d9190612159565b610594565b60405161019f91906121a1565b60405180910390f35b3480156101b457600080fd5b506101bd610676565b6040516101ca91906120e6565b60405180910390f35b3480156101df57600080fd5b506101e8610680565b6040516101f591906120e6565b60405180910390f35b34801561020a57600080fd5b50610213610686565b604051610220919061224c565b60405180910390f35b34801561023557600080fd5b50610250600480360381019061024b919061226e565b610714565b60405161025d919061224c565b60405180910390f35b34801561027257600080fd5b5061027b610782565b60405161028891906121a1565b60405180910390f35b34801561029d57600080fd5b506102b860048036038101906102b39190612498565b610799565b005b3480156102c657600080fd5b506102e160048036038101906102dc919061226e565b61083a565b005b3480156102ef57600080fd5b5061030a60048036038101906103059190612567565b61084c565b60405161031791906120e6565b60405180910390f35b34801561032c57600080fd5b5061034760048036038101906103429190612657565b610895565b604051610354919061278d565b60405180910390f35b34801561036957600080fd5b506103726109ae565b005b34801561038057600080fd5b506103896109c2565b60405161039691906127be565b60405180910390f35b3480156103ab57600080fd5b506103b46109ec565b6040516103c1919061224c565b60405180910390f35b6103e460048036038101906103df919061226e565b610a7a565b005b3480156103f257600080fd5b5061040d60048036038101906104089190612805565b610cca565b005b34801561041b57600080fd5b50610424610ce0565b005b34801561043257600080fd5b5061043b610d3a565b005b34801561044957600080fd5b50610464600480360381019061045f9190612845565b610dee565b60405161047191906121a1565b60405180910390f35b34801561048657600080fd5b506104a1600480360381019061049c9190612885565b610e82565b005b3480156104af57600080fd5b506104ca60048036038101906104c59190612567565b610f23565b005b60008073ffffffffffffffffffffffffffffffffffffffff168373ffffffffffffffffffffffffffffffffffffffff160361053c576040517f08c379a00000000000000000000000000000000000000000000000000000000081526004016105339061298e565b60405180910390fd5b60008083815260200190815260200160002060008473ffffffffffffffffffffffffffffffffffffffff1673ffffffffffffffffffffffffffffffffffffffff16815260200190815260200160002054905092915050565b60007fd9b67a26000000000000000000000000000000000000000000000000000000007bffffffffffffffffffffffffffffffffffffffffffffffffffffffff1916827bffffffffffffffffffffffffffffffffffffffffffffffffffffffff1916148061065f57507f0e89341c000000000000000000000000000000000000000000000000000000007bffffffffffffffffffffffffffffffffffffffffffffffffffffffff1916827bffffffffffffffffffffffffffffffffffffffffffffffffffffffff1916145b8061066f575061066e82610fc9565b5b9050919050565b6000600854905090565b60095481565b60068054610693906129dd565b80601f01602080910402602001604051908101604052809291908181526020018280546106bf906129dd565b801561070c5780601f106106e15761010080835404028352916020019161070c565b820191906000526020600020905b8154815290600101906020018083116106ef57829003601f168201915b505050505081565b606060018214610750576040517fceea21b600000000000000000000000000000000000000000000000000000000815260040160405180910390fd5b600461075b83611033565b60405160200161076c929190612ae2565b6040516020818303038152906040529050919050565b6000600560009054906101000a900460ff16905090565b6107a1611193565b73ffffffffffffffffffffffffffffffffffffffff168573ffffffffffffffffffffffffffffffffffffffff1614806107e757506107e6856107e1611193565b610dee565b5b610826576040517f08c379a000000000000000000000000000000000000000000000000000000000815260040161081d90612b78565b60405180910390fd5b610833858585858561119b565b5050505050565b6108426114bc565b8060098190555050565b6000600a60008373ffffffffffffffffffffffffffffffffffffffff1673ffffffffffffffffffffffffffffffffffffffff168152602001908152602001600020549050919050565b606081518351146108db576040517f08c379a00000000000000000000000000000000000000000000000000000000081526004016108d290612c0a565b60405180910390fd5b6000835167ffffffffffffffff8111156108f8576108f76122a0565b5b6040519080825280602002602001820160405280156109265781602001602082028036833780820191505090505b50905060005b84518110156109a35761097385828151811061094b5761094a612c2a565b5b602002602001015185838151811061096657610965612c2a565b5b60200260200101516104cc565b82828151811061098657610985612c2a565b5b6020026020010181815250508061099c90612c88565b905061092c565b508091505092915050565b6109b66114bc565b6109c0600061153a565b565b6000600360009054906101000a900473ffffffffffffffffffffffffffffffffffffffff16905090565b600780546109f9906129dd565b80601f0160208091040260200160405190810160405280929190818152602001828054610a25906129dd565b8015610a725780601f10610a4757610100808354040283529160200191610a72565b820191906000526020600020905b815481529060010190602001808311610a5557829003601f168201915b505050505081565b80600560009054906101000a900460ff16610ac1576040517f914edb0f00000000000000000000000000000000000000000000000000000000815260040160405180910390fd5b80600954610acf9190612cd0565b341015610b08576040517f36c64b2700000000000000000000000000000000000000000000000000000000815260040160405180910390fd5b600281600a60003373ffffffffffffffffffffffffffffffffffffffff1673ffffffffffffffffffffffffffffffffffffffff16815260200190815260200160002054610b559190612d12565b1115610b8d576040517fddefae2800000000000000000000000000000000000000000000000000000000815260040160405180910390fd5b6101f481600854610b9e9190612d12565b1115610bd6576040517f846fb9e200000000000000000000000000000000000000000000000000000000815260040160405180910390fd5b3273ffffffffffffffffffffffffffffffffffffffff163373ffffffffffffffffffffffffffffffffffffffff1614610c3b576040517f21bd401700000000000000000000000000000000000000000000000000000000815260040160405180910390fd5b81600a60003373ffffffffffffffffffffffffffffffffffffffff1673ffffffffffffffffffffffffffffffffffffffff1681526020019081526020016000206000828254610c8a9190612d12565b925050819055508160086000828254610ca39190612d12565b92505081905550610cc63360018460405180602001604052806000815250611600565b5050565b610cdc610cd5611193565b83836117b0565b5050565b610ce86114bc565b600560009054906101000a900460ff1615610d1c576000600560006101000a81548160ff0219169083151502179055610d37565b6001600560006101000a81548160ff02191690831515021790555b50565b610d426114bc565b600047905060003373ffffffffffffffffffffffffffffffffffffffff1682604051610d6d90612d77565b60006040518083038185875af1925050503d8060008114610daa576040519150601f19603f3d011682016040523d82523d6000602084013e610daf565b606091505b5050905080610dea576040517f90b8ec1800000000000000000000000000000000000000000000000000000000815260040160405180910390fd5b5050565b6000600160008473ffffffffffffffffffffffffffffffffffffffff1673ffffffffffffffffffffffffffffffffffffffff16815260200190815260200160002060008373ffffffffffffffffffffffffffffffffffffffff1673ffffffffffffffffffffffffffffffffffffffff16815260200190815260200160002060009054906101000a900460ff16905092915050565b610e8a611193565b73ffffffffffffffffffffffffffffffffffffffff168573ffffffffffffffffffffffffffffffffffffffff161480610ed05750610ecf85610eca611193565b610dee565b5b610f0f576040517f08c379a0000000000000000000000000000000000000000000000000000000008152600401610f0690612b78565b60405180910390fd5b610f1c858585858561191c565b5050505050565b610f2b6114bc565b600073ffffffffffffffffffffffffffffffffffffffff168173ffffffffffffffffffffffffffffffffffffffff1603610f9a576040517f08c379a0000000000000000000000000000000000000000000000000000000008152600401610f9190612dfe565b60405180910390fd5b610fa38161153a565b50565b6000808273ffffffffffffffffffffffffffffffffffffffff163b119050919050565b60007f01ffc9a7000000000000000000000000000000000000000000000000000000007bffffffffffffffffffffffffffffffffffffffffffffffffffffffff1916827bffffffffffffffffffffffffffffffffffffffffffffffffffffffff1916149050919050565b60606000820361107a576040518060400160405280600181526020017f3000000000000000000000000000000000000000000000000000000000000000815250905061118e565b600082905060005b600082146110ac57808061109590612c88565b915050600a826110a59190612e4d565b9150611082565b60008167ffffffffffffffff8111156110c8576110c76122a0565b5b6040519080825280601f01601f1916602001820160405280156110fa5781602001600182028036833780820191505090505b5090505b60008514611187576001826111139190612e7e565b9150600a856111229190612eb2565b603061112e9190612d12565b60f81b81838151811061114457611143612c2a565b5b60200101907effffffffffffffffffffffffffffffffffffffffffffffffffffffffffffff1916908160001a905350600a856111809190612e4d565b94506110fe565b8093505050505b919050565b600033905090565b81518351146111df576040517f08c379a00000000000000000000000000000000000000000000000000000000081526004016111d690612f55565b60405180910390fd5b600073ffffffffffffffffffffffffffffffffffffffff168473ffffffffffffffffffffffffffffffffffffffff160361124e576040517f08c379a000000000000000000000000000000000000000000000000000000000815260040161124590612fe7565b60405180910390fd5b6000611258611193565b9050611268818787878787611bb7565b60005b845181101561141957600085828151811061128957611288612c2a565b5b6020026020010151905060008583815181106112a8576112a7612c2a565b5b60200260200101519050600080600084815260200190815260200160002060008b73ffffffffffffffffffffffffffffffffffffffff1673ffffffffffffffffffffffffffffffffffffffff16815260200190815260200160002054905081811015611349576040517f08c379a000000000000000000000000000000000000000000000000000000000815260040161134090613079565b60405180910390fd5b81810360008085815260200190815260200160002060008c73ffffffffffffffffffffffffffffffffffffffff1673ffffffffffffffffffffffffffffffffffffffff168152602001908152602001600020819055508160008085815260200190815260200160002060008b73ffffffffffffffffffffffffffffffffffffffff1673ffffffffffffffffffffffffffffffffffffffff16815260200190815260200160002060008282546113fe9190612d12565b925050819055505050508061141290612c88565b905061126b565b508473ffffffffffffffffffffffffffffffffffffffff168673ffffffffffffffffffffffffffffffffffffffff168273ffffffffffffffffffffffffffffffffffffffff167f4a39dc06d4c0dbc64b70af90fd698a233a518aa5d07e595d983b8c0526c8f7fb8787604051611490929190613099565b60405180910390a46114a6818787878787611bbf565b6114b4818787878787611bc7565b505050505050565b6114c4611193565b73ffffffffffffffffffffffffffffffffffffffff166114e26109c2565b73ffffffffffffffffffffffffffffffffffffffff1614611538576040517f08c379a000000000000000000000000000000000000000000000000000000000815260040161152f9061311c565b60405180910390fd5b565b6000600360009054906101000a900473ffffffffffffffffffffffffffffffffffffffff16905081600360006101000a81548173ffffffffffffffffffffffffffffffffffffffff021916908373ffffffffffffffffffffffffffffffffffffffff1602179055508173ffffffffffffffffffffffffffffffffffffffff168173ffffffffffffffffffffffffffffffffffffffff167f8be0079c531659141344cd1fd0a4f28419497f9722a3daafe3b4186f6b6457e060405160405180910390a35050565b600073ffffffffffffffffffffffffffffffffffffffff168473ffffffffffffffffffffffffffffffffffffffff160361166f576040517f08c379a0000000000000000000000000000000000000000000000000000000008152600401611666906131ae565b60405180910390fd5b6000611679611193565b9050600061168685611d9e565b9050600061169385611d9e565b90506116a483600089858589611bb7565b8460008088815260200190815260200160002060008973ffffffffffffffffffffffffffffffffffffffff1673ffffffffffffffffffffffffffffffffffffffff16815260200190815260200160002060008282546117039190612d12565b925050819055508673ffffffffffffffffffffffffffffffffffffffff16600073ffffffffffffffffffffffffffffffffffffffff168473ffffffffffffffffffffffffffffffffffffffff167fc3d58168c5ae7397731d063d5bbf3d657854427343f4c083240f7aacaa2d0f6289896040516117819291906131ce565b60405180910390a461179883600089858589611bbf565b6117a783600089898989611e18565b50505050505050565b8173ffffffffffffffffffffffffffffffffffffffff168373ffffffffffffffffffffffffffffffffffffffff160361181e576040517f08c379a000000000000000000000000000000000000000000000000000000000815260040161181590613269565b60405180910390fd5b80600160008573ffffffffffffffffffffffffffffffffffffffff1673ffffffffffffffffffffffffffffffffffffffff16815260200190815260200160002060008473ffffffffffffffffffffffffffffffffffffffff1673ffffffffffffffffffffffffffffffffffffffff16815260200190815260200160002060006101000a81548160ff0219169083151502179055508173ffffffffffffffffffffffffffffffffffffffff168373ffffffffffffffffffffffffffffffffffffffff167f17307eab39ab6107e8899845ad3d59bd9653f200f220920489ca2b5937696c318360405161190f91906121a1565b60405180910390a3505050565b600073ffffffffffffffffffffffffffffffffffffffff168473ffffffffffffffffffffffffffffffffffffffff160361198b576040517f08c379a000000000000000000000000000000000000000000000000000000000815260040161198290612fe7565b60405180910390fd5b6000611995611193565b905060006119a285611d9e565b905060006119af85611d9e565b90506119bf838989858589611bb7565b600080600088815260200190815260200160002060008a73ffffffffffffffffffffffffffffffffffffffff1673ffffffffffffffffffffffffffffffffffffffff16815260200190815260200160002054905085811015611a56576040517f08c379a0000000000000000000000000000000000000000000000000000000008152600401611a4d90613079565b60405180910390fd5b85810360008089815260200190815260200160002060008b73ffffffffffffffffffffffffffffffffffffffff1673ffffffffffffffffffffffffffffffffffffffff168152602001908152602001600020819055508560008089815260200190815260200160002060008a73ffffffffffffffffffffffffffffffffffffffff1673ffffffffffffffffffffffffffffffffffffffff1681526020019081526020016000206000828254611b0b9190612d12565b925050819055508773ffffffffffffffffffffffffffffffffffffffff168973ffffffffffffffffffffffffffffffffffffffff168573ffffffffffffffffffffffffffffffffffffffff167fc3d58168c5ae7397731d063d5bbf3d657854427343f4c083240f7aacaa2d0f628a8a604051611b889291906131ce565b60405180910390a4611b9e848a8a86868a611bbf565b611bac848a8a8a8a8a611e18565b505050505050505050565b505050505050565b505050505050565b611be68473ffffffffffffffffffffffffffffffffffffffff16610fa6565b15611d96578373ffffffffffffffffffffffffffffffffffffffff1663bc197c8187878686866040518663ffffffff1660e01b8152600401611c2c9594939291906132de565b6020604051808303816000875af1925050508015611c6857506040513d601f19601f82011682018060405250810190611c65919061335b565b60015b611d0d57611c74613395565b806308c379a003611cd05750611c886133b7565b80611c935750611cd2565b806040517f08c379a0000000000000000000000000000000000000000000000000000000008152600401611cc7919061224c565b60405180910390fd5b505b6040517f08c379a0000000000000000000000000000000000000000000000000000000008152600401611d04906134b9565b60405180910390fd5b63bc197c8160e01b7bffffffffffffffffffffffffffffffffffffffffffffffffffffffff1916817bffffffffffffffffffffffffffffffffffffffffffffffffffffffff191614611d94576040517f08c379a0000000000000000000000000000000000000000000000000000000008152600401611d8b9061354b565b60405180910390fd5b505b505050505050565b60606000600167ffffffffffffffff811115611dbd57611dbc6122a0565b5b604051908082528060200260200182016040528015611deb5781602001602082028036833780820191505090505b5090508281600081518110611e0357611e02612c2a565b5b60200260200101818152505080915050919050565b611e378473ffffffffffffffffffffffffffffffffffffffff16610fa6565b15611fe7578373ffffffffffffffffffffffffffffffffffffffff1663f23a6e6187878686866040518663ffffffff1660e01b8152600401611e7d95949392919061356b565b6020604051808303816000875af1925050508015611eb957506040513d601f19601f82011682018060405250810190611eb6919061335b565b60015b611f5e57611ec5613395565b806308c379a003611f215750611ed96133b7565b80611ee45750611f23565b806040517f08c379a0000000000000000000000000000000000000000000000000000000008152600401611f18919061224c565b60405180910390fd5b505b6040517f08c379a0000000000000000000000000000000000000000000000000000000008152600401611f55906134b9565b60405180910390fd5b63f23a6e6160e01b7bffffffffffffffffffffffffffffffffffffffffffffffffffffffff1916817bffffffffffffffffffffffffffffffffffffffffffffffffffffffff191614611fe5576040517f08c379a0000000000000000000000000000000000000000000000000000000008152600401611fdc9061354b565b60405180910390fd5b505b505050505050565b6000604051905090565b600080fd5b600080fd5b600073ffffffffffffffffffffffffffffffffffffffff82169050919050565b600061202e82612003565b9050919050565b61203e81612023565b811461204957600080fd5b50565b60008135905061205b81612035565b92915050565b6000819050919050565b61207481612061565b811461207f57600080fd5b50565b6000813590506120918161206b565b92915050565b600080604083850312156120ae576120ad611ff9565b5b60006120bc8582860161204c565b92505060206120cd85828601612082565b9150509250929050565b6120e081612061565b82525050565b60006020820190506120fb60008301846120d7565b92915050565b60007fffffffff0000000000000000000000000000000000000000000000000000000082169050919050565b61213681612101565b811461214157600080fd5b50565b6000813590506121538161212d565b92915050565b60006020828403121561216f5761216e611ff9565b5b600061217d84828501612144565b91505092915050565b60008115159050919050565b61219b81612186565b82525050565b60006020820190506121b66000830184612192565b92915050565b600081519050919050565b600082825260208201905092915050565b60005b838110156121f65780820151818401526020810190506121db565b60008484015250505050565b6000601f19601f8301169050919050565b600061221e826121bc565b61222881856121c7565b93506122388185602086016121d8565b61224181612202565b840191505092915050565b600060208201905081810360008301526122668184612213565b905092915050565b60006020828403121561228457612283611ff9565b5b600061229284828501612082565b91505092915050565b600080fd5b7f4e487b7100000000000000000000000000000000000000000000000000000000600052604160045260246000fd5b6122d882612202565b810181811067ffffffffffffffff821117156122f7576122f66122a0565b5b80604052505050565b600061230a611fef565b905061231682826122cf565b919050565b600067ffffffffffffffff821115612336576123356122a0565b5b602082029050602081019050919050565b600080fd5b600061235f61235a8461231b565b612300565b9050808382526020820190506020840283018581111561238257612381612347565b5b835b818110156123ab57806123978882612082565b845260208401935050602081019050612384565b5050509392505050565b600082601f8301126123ca576123c961229b565b5b81356123da84826020860161234c565b91505092915050565b600080fd5b600067ffffffffffffffff821115612403576124026122a0565b5b61240c82612202565b9050602081019050919050565b82818337600083830152505050565b600061243b612436846123e8565b612300565b905082815260208101848484011115612457576124566123e3565b5b612462848285612419565b509392505050565b600082601f83011261247f5761247e61229b565b5b813561248f848260208601612428565b91505092915050565b600080600080600060a086880312156124b4576124b3611ff9565b5b60006124c28882890161204c565b95505060206124d38882890161204c565b945050604086013567ffffffffffffffff8111156124f4576124f3611ffe565b5b612500888289016123b5565b935050606086013567ffffffffffffffff81111561252157612520611ffe565b5b61252d888289016123b5565b925050608086013567ffffffffffffffff81111561254e5761254d611ffe565b5b61255a8882890161246a565b9150509295509295909350565b60006020828403121561257d5761257c611ff9565b5b600061258b8482850161204c565b91505092915050565b600067ffffffffffffffff8211156125af576125ae6122a0565b5b602082029050602081019050919050565b60006125d36125ce84612594565b612300565b905080838252602082019050602084028301858111156125f6576125f5612347565b5b835b8181101561261f578061260b888261204c565b8452602084019350506020810190506125f8565b5050509392505050565b600082601f83011261263e5761263d61229b565b5b813561264e8482602086016125c0565b91505092915050565b6000806040838503121561266e5761266d611ff9565b5b600083013567ffffffffffffffff81111561268c5761268b611ffe565b5b61269885828601612629565b925050602083013567ffffffffffffffff8111156126b9576126b8611ffe565b5b6126c5858286016123b5565b9150509250929050565b600081519050919050565b600082825260208201905092915050565b6000819050602082019050919050565b61270481612061565b82525050565b600061271683836126fb565b60208301905092915050565b6000602082019050919050565b600061273a826126cf565b61274481856126da565b935061274f836126eb565b8060005b83811015612780578151612767888261270a565b975061277283612722565b925050600181019050612753565b5085935050505092915050565b600060208201905081810360008301526127a7818461272f565b905092915050565b6127b881612023565b82525050565b60006020820190506127d360008301846127af565b92915050565b6127e281612186565b81146127ed57600080fd5b50565b6000813590506127ff816127d9565b92915050565b6000806040838503121561281c5761281b611ff9565b5b600061282a8582860161204c565b925050602061283b858286016127f0565b9150509250929050565b6000806040838503121561285c5761285b611ff9565b5b600061286a8582860161204c565b925050602061287b8582860161204c565b9150509250929050565b600080600080600060a086880312156128a1576128a0611ff9565b5b60006128af8882890161204c565b95505060206128c08882890161204c565b94505060406128d188828901612082565b93505060606128e288828901612082565b925050608086013567ffffffffffffffff81111561290357612902611ffe565b5b61290f8882890161246a565b9150509295509295909350565b7f455243313135353a2061646472657373207a65726f206973206e6f742061207660008201527f616c6964206f776e657200000000000000000000000000000000000000000000602082015250565b6000612978602a836121c7565b91506129838261291c565b604082019050919050565b600060208201905081810360008301526129a78161296b565b9050919050565b7f4e487b7100000000000000000000000000000000000000000000000000000000600052602260045260246000fd5b600060028204905060018216806129f557607f821691505b602082108103612a0857612a076129ae565b5b50919050565b600081905092915050565b60008190508160005260206000209050919050565b60008154612a3b816129dd565b612a458186612a0e565b94506001821660008114612a605760018114612a7557612aa8565b60ff1983168652811515820286019350612aa8565b612a7e85612a19565b60005b83811015612aa057815481890152600182019150602081019050612a81565b838801955050505b50505092915050565b6000612abc826121bc565b612ac68185612a0e565b9350612ad68185602086016121d8565b80840191505092915050565b6000612aee8285612a2e565b9150612afa8284612ab1565b91508190509392505050565b7f455243313135353a2063616c6c6572206973206e6f7420746f6b656e206f776e60008201527f6572206e6f7220617070726f7665640000000000000000000000000000000000602082015250565b6000612b62602f836121c7565b9150612b6d82612b06565b604082019050919050565b60006020820190508181036000830152612b9181612b55565b9050919050565b7f455243313135353a206163636f756e747320616e6420696473206c656e67746860008201527f206d69736d617463680000000000000000000000000000000000000000000000602082015250565b6000612bf46029836121c7565b9150612bff82612b98565b604082019050919050565b60006020820190508181036000830152612c2381612be7565b9050919050565b7f4e487b7100000000000000000000000000000000000000000000000000000000600052603260045260246000fd5b7f4e487b7100000000000000000000000000000000000000000000000000000000600052601160045260246000fd5b6000612c9382612061565b91507fffffffffffffffffffffffffffffffffffffffffffffffffffffffffffffffff8203612cc557612cc4612c59565b5b600182019050919050565b6000612cdb82612061565b9150612ce683612061565b9250828202612cf481612061565b91508282048414831517612d0b57612d0a612c59565b5b5092915050565b6000612d1d82612061565b9150612d2883612061565b9250828201905080821115612d4057612d3f612c59565b5b92915050565b600081905092915050565b50565b6000612d61600083612d46565b9150612d6c82612d51565b600082019050919050565b6000612d8282612d54565b9150819050919050565b7f4f776e61626c653a206e6577206f776e657220697320746865207a65726f206160008201527f6464726573730000000000000000000000000000000000000000000000000000602082015250565b6000612de86026836121c7565b9150612df382612d8c565b604082019050919050565b60006020820190508181036000830152612e1781612ddb565b9050919050565b7f4e487b7100000000000000000000000000000000000000000000000000000000600052601260045260246000fd5b6000612e5882612061565b9150612e6383612061565b925082612e7357612e72612e1e565b5b828204905092915050565b6000612e8982612061565b9150612e9483612061565b9250828203905081811115612eac57612eab612c59565b5b92915050565b6000612ebd82612061565b9150612ec883612061565b925082612ed857612ed7612e1e565b5b828206905092915050565b7f455243313135353a2069647320616e6420616d6f756e7473206c656e6774682060008201527f6d69736d61746368000000000000000000000000000000000000000000000000602082015250565b6000612f3f6028836121c7565b9150612f4a82612ee3565b604082019050919050565b60006020820190508181036000830152612f6e81612f32565b9050919050565b7f455243313135353a207472616e7366657220746f20746865207a65726f20616460008201527f6472657373000000000000000000000000000000000000000000000000000000602082015250565b6000612fd16025836121c7565b9150612fdc82612f75565b604082019050919050565b6000602082019050818103600083015261300081612fc4565b9050919050565b7f455243313135353a20696e73756666696369656e742062616c616e636520666f60008201527f72207472616e7366657200000000000000000000000000000000000000000000602082015250565b6000613063602a836121c7565b915061306e82613007565b604082019050919050565b6000602082019050818103600083015261309281613056565b9050919050565b600060408201905081810360008301526130b3818561272f565b905081810360208301526130c7818461272f565b90509392505050565b7f4f776e61626c653a2063616c6c6572206973206e6f7420746865206f776e6572600082015250565b60006131066020836121c7565b9150613111826130d0565b602082019050919050565b60006020820190508181036000830152613135816130f9565b9050919050565b7f455243313135353a206d696e7420746f20746865207a65726f2061646472657360008201527f7300000000000000000000000000000000000000000000000000000000000000602082015250565b60006131986021836121c7565b91506131a38261313c565b604082019050919050565b600060208201905081810360008301526131c78161318b565b9050919050565b60006040820190506131e360008301856120d7565b6131f060208301846120d7565b9392505050565b7f455243313135353a2073657474696e6720617070726f76616c2073746174757360008201527f20666f722073656c660000000000000000000000000000000000000000000000602082015250565b60006132536029836121c7565b915061325e826131f7565b604082019050919050565b6000602082019050818103600083015261328281613246565b9050919050565b600081519050919050565b600082825260208201905092915050565b60006132b082613289565b6132ba8185613294565b93506132ca8185602086016121d8565b6132d381612202565b840191505092915050565b600060a0820190506132f360008301886127af565b61330060208301876127af565b8181036040830152613312818661272f565b90508181036060830152613326818561272f565b9050818103608083015261333a81846132a5565b90509695505050505050565b6000815190506133558161212d565b92915050565b60006020828403121561337157613370611ff9565b5b600061337f84828501613346565b91505092915050565b60008160e01c9050919050565b600060033d11156133b45760046000803e6133b1600051613388565b90505b90565b600060443d10613444576133c9611fef565b60043d036004823e80513d602482011167ffffffffffffffff821117156133f1575050613444565b808201805167ffffffffffffffff81111561340f5750505050613444565b80602083010160043d03850181111561342c575050505050613444565b61343b826020018501866122cf565b82955050505050505b90565b7f455243313135353a207472616e7366657220746f206e6f6e204552433131353560008201527f526563656976657220696d706c656d656e746572000000000000000000000000602082015250565b60006134a36034836121c7565b91506134ae82613447565b604082019050919050565b600060208201905081810360008301526134d281613496565b9050919050565b7f455243313135353a204552433131353552656365697665722072656a6563746560008201527f6420746f6b656e73000000000000000000000000000000000000000000000000602082015250565b60006135356028836121c7565b9150613540826134d9565b604082019050919050565b6000602082019050818103600083015261356481613528565b9050919050565b600060a08201905061358060008301886127af565b61358d60208301876127af565b61359a60408301866120d7565b6135a760608301856120d7565b81810360808301526135b981846132a5565b9050969550505050505056fea2646970667358221220ada8e26f22f1a1afd7e42c1f2b0f57bdd3ba54dbf063ec14cfcc48589440a80164736f6c63430008110033",
  "linkReferences": {},
  "deployedLinkReferences": {}
}